:030000000200CF2C
:0C00CF00787FE4F6D8FD75812002011650
:10027D00039F250D9949411F01193BC7F19D031995
:09028D0046154443400D0E000F1C
:10026300010C00010B00010E00010D00C181C180D2
:0902730002080000010A00C102AA
:1001EF00E4FDFCC3ED9FEC9E5013E4FB0BBBC9FC7D
:0D01FF00E4FB0BBB65FC0DBD00010C80E6B0
:01020C0022CF
:1002AC00E4FDEF24FFFBEE34FFFAEDC39BE49A5020
:0402BC00030D80EEC0
:0102C000221B
:100296007D01AC051DEC600DE4FEEF14FCEEC39C85
:0502A60050F00E80F590
:0102AB002230
:0702490012030C7FF07E00A0
:100250007D0A7C3200DCFDDDF9EF1F70011E144EBB
:0202600070EE3E
:010262002279
:0F02C100750E0C750D0CD292C293D294C2952279
:0F02D000750E0C750D0CC292D293C294D295226A
:0F02DF00750E0C750D0CC292D293D294C295225B
:0F02EE00750E0C750D0CC294D295D292C293224C
:09030C00C294C295C292C2932270
:10020D00300118E50CD3950E5004D2968002C2969B
:0E021D00E50CC394144006E4F50C22C29622B0
:10022B00300018E50BD3950D5004D2978002C2977E
:0E023B00E50BC394144006E4F50B22C2972293
:03000B000201CE21
:1001CE00C0E0C0D0758CFC758A180509E50970026F
:1001DE000508050C050B12020D12022BD0D0D0E033
:0101EE0032DE
:0E02FD007F307E75EF1FAC0670011E4C70F650
:01030B0022CF
:10015B0012030CEF24FE601A14602414602C14603C
:10016B00342404703A120249C2A01202C1900287D1
:10017B008029120249D2A01202D0900288801C1250
:10018B0002491202DF90028980111202491202EE1B
:10019B0090028A800612030C90028BE493F5802266
:03001300020016D2
:0B001600C0E0C083C082C0D075D000E5
:10002100751800C2AA7FD212029630B305D2AA0275
:1000310000C620B3077F0E12029680F67516007572
:10004100170030B3077F0E12029680F620B3077FA8
:100051000E12029680F630B3127F0E120296051828
:10006100E518C3941E40EFD2AA805A740F2516F8E2
:10007100C000E6FFC313D000F6E518C39408400999
:10008100740F2516F8E64480F67518000517E51774
:10009100C3940840AD0516E516C3940440A1E512CA
:1000A100F465116004D2AA801C751600E516900251
:1000B1008C93B51105AF1612015B0516E516C394B5
:0500C1000A40E9D2AA8B
:0900C600D0D0D082D083D0E0320A
:1001AB00C203D2AAD28AD2AF758901758CFC758A2B
:1001BB0018D28CD2A990028BE493F580D2BA12029A
:0301CB00FD80FBB9
:1000DB000201ABE493A3F8E493A34003F68001F28F
:1000EB0008DFF48029E493A3F85407240CC8C33326
:1000FB00C4540F4420C8834004F456800146F6DFF5
:10010B00E4800B0102040810204080900263E47E1F
:10011B00019360BCA3FF543F30E509541FFEE493E9
:10012B00A360010ECF54C025E060A840B8E493A3B0
:10013B00FAE493A3F8E493A3C8C582C8CAC583CADB
:10014B00F0A3C8C582C8CAC583CADFE9DEE780BE93
:01027C000081
:00000001FF
