:03000000020800F3
:0C080000787FE4F6D8FD758109020847F6
:06091B00010900010800C3
:1008B800E4FDFCC3ED9FEC9E5013E4FB0BBBC8FCAE
:0D08C800E4FB0BBB66FC0DBD00010C80E6DF
:0108D5002200
:0F08D60075090C75090CD292C293D294C2952267
:0F08E50075090C75090CC292D293C294D2952258
:0F08F40075090575080FC292D293D294C295224E
:0F09030075080575090FC294D295D292C293223E
:09091200C294C295C292C2932264
:10088C0020B70820B6051208D680F530B70820B678
:10089C00051208F480EA30B60820B7051209038067
:0C08AC00DF30B6DC30B7D912091280D45E
:10080C0002088CE493A3F8E493A34003F68001F26E
:10081C0008DFF48029E493A3F85407240CC8C333ED
:10082C00C4540F4420C8834004F456800146F6DFBC
:10083C00E4800B010204081020408090091BE47E28
:10084C00019360BCA3FF543F30E509541FFEE493B1
:10085C00A360010ECF54C025E060A840B8E493A378
:10086C00FAE493A3F8E493A3C8C582C8CAC583CAA3
:10087C00F0A3C8C582C8CAC583CADFE9DEE780BE5B
:0109210000D5
:00000001FF
