:0300000002000EED
:0C000E00787FE4F6D8FD758120020055D3
:10014100010B00010A00010D00010C000208000072
:04015100C181C18027
:1000E700E4FDFCC3ED9FEC9E5013E4FB0BBBC8FC87
:0D00F700E4FB0BBB66FC0DBD00010C80E6B8
:0101040022D8
:0F015600750B0C750B0CD292C293D294C29522EA
:0F016500750B0C750B0CC292D293C294D29522DB
:0F017400750B0C750A0FC292D293D294C29522CA
:0F018300750A0C750B0FC294D295D292C29322BB
:09019200C294C295C292C29322EC
:10010500300118E50BD3950D5004D2968002C296A6
:0E011500E50BC394144006E4F50B22C29622BB
:10012300300018E50AD3950C5004D2978002C29789
:0E013300E50AC394144006E4F50A22C297229E
:03000B000200C62A
:1000C600C0E0C0D0758CFC758A180509E509700278
:1000D6000508050B050A120105120123D0D0D0E050
:0100E60032E7
:10009A0020B70820B60512015680F530B70820B6F9
:1000AA000512017480EA30B60820B7051201838070
:0C00BA00DF30B6DC30B7D912019280D4E0
:10001A0002009AE493A3F8E493A34003F68001F262
:10002A0008DFF48029E493A3F85407240CC8C333E7
:10003A00C4540F4420C8834004F456800146F6DFB6
:10004A00E4800B0102040810204080900141E47E04
:10005A00019360BCA3FF543F30E509541FFEE493AB
:10006A00A360010ECF54C025E060A840B8E493A372
:10007A00FAE493A3F8E493A3C8C582C8CAC583CA9D
:10008A00F0A3C8C582C8CAC583CADFE9DEE780BE55
:0101550000A9
:00000001FF
