:030000000203DF19
:0C03DF00787FE4F6D8FD7581200204262A
:1004C10004100000000002080000040A00000000FF
:1004D100C100011500011400010F00010E00C182CD
:0204E100C181D7
:0F05540075150C75140CD292C293D294C29522D5
:0F05630075150C75140CC292D293C294D29522C6
:0F05720075150C75140CC292D293D294C29522B7
:0F05810075150C75140CC294D295D292C29322A8
:09059A00C294C295C292C29322E0
:10050500300218E50FD395155004D2968002C29695
:0E051500E50FC394144006E4F50F22C29622AF
:10052300300118E50ED395145004D2978002C29778
:0E053300E50EC394144006E4F50E22C2972292
:100541007D0A7C3200DCFDDDF9EF1F70011E144EC7
:0205510070EE4A
:010553002285
:070003007E0A00DEFDDFF9BB
:01000A0022D3
:1002D000AF8DEFFEAD8B7C00E42DF509EC3EF5080B
:1002E000E4F58DF58BE50925E0FFE50833FEE48FA5
:1002F0000D8E0CF50BF50AAD0BAC0A1201247B7BBD
:100300007A14792E783E12001E1201628F0D8E0C27
:100310008D0B8C0AE47F907E01FDFCAB0DAA0CA92D
:100320000BA80AD31202BF503020030A12059A7F8D
:10033000057E00120541D203C2A37F327E00120562
:1003400041D2A31205637F2C7E0112054112057272
:100350007F907E011205418005C203120554E47F9F
:10036000887E13FDFCAB0DAA0CA90BA80AC31202D0
:10037000BF5003300003C20022E47B0AFAF9F8AF51
:100380000DAE0CAD0BAC0A12021FAF038F10E47B55
:100390000AFAF9F8AF0DAE0CAD0BAC0A12021FE46D
:1003A0007B0AFAF9F812021FAF038F11E47B64FA9B
:1003B000F9F8AF0DAE0CAD0BAC0A12021FE47B0ACC
:1003C000FAF9F812021FAF038F12E47BE87A03F9FF
:0F03D000F8AF0DAE0CAD0BAC0A12021F8F13224B
:03001B000205A338
:0505A300D200C2A032ED
:0A000E00D28E20A0FDC28E0202D0A7
:0A059000D2A17F02120003C2A122D3
:03000B000204E408
:1004E400C0E0C0D0758CFC758A180509E509700256
:1004F4000508050F050E120505120523D0D0D0E01E
:0105040032C4
:10046B007F057E00120541438910D2AFE4F58DF56F
:10047B008BD2ABC203E4FB7F017E0012054120B29D
:10048B00F40BBB32F2C2A37F327E00120541D2A322
:10049B00D2A01205907516037517B730A003120082
:1004AB000EE517151770021516D3E5179400E51610
:0604BB00940050E780DA16
:10001E00EC4D6011E8497017ED33EC3304600DE4DC
:10002E00FCFFFEFD22E933E8330470F80201CE1224
:10003E00019958046009E4CC248150062850090225
:10004E0001D82840030201D5C0E0EB4A7044B980C4
:10005E0006D0E0FB0201C4EF4E701CBD8008EBFF22
:10006E00EAFEE9FD80EBE98DF0A4FEE5F002010762
:10007E00E9CDF9EAFEEBFFEF89F0A4FCE5F0CE89BD
:10008E00F0A42EFFE435F0CD89F0A42DFEE435F07A
:10009E008067EF4E7005BD80D780C3EF8BF0A4ACA8
:1000AE00F0EE8BF0A42CFCE435F0F8EF8AF0A42CE3
:1000BE00E5F038FCE433CB8DF0A42CFCE5F03BF8F6
:1000CE00EE8AF0A42CFCE5F038F8E433CF89F0A4E6
:1000DE002CFCE5F038CF3400CE89F0A42FFFE5F0EC
:1000EE003EFEE433C98DF0A42EFEE5F039CD8AF044
:1000FE00A42FFFE5F03EFEE43DFD33D0E0FB5007BC
:10010E000BBB000F0201D8EC2CFCEF33FFEE33FEDD
:06011E00ED33FD0201B00B
:1001240075F020800E75F010800575F0087D007E56
:10013400007F003392D530D5031202B1EC33401066
:10014400EF33FFEE33FEED33FDEC33FCD5F0ED225F
:0E015400E5F0247EA2D513CC92E7CDCEFF229B
:10016200EDD2E7CD33EC3392D524814006E4FFFE95
:10017200FDFC22FCE4CFCECDCC24E0501174FF80F4
:10018200EDC3CC13CCCD13CDCE13CECF13CF047091
:07019200F030D5DE0202B1DE
:10019900E9D2E7C933E833F892D5EDD2E7CD33ECAC
:0701A90033FC5002B2D52225
:1001B000EC30E7100FBF000C0EBE00080DBD0004B0
:1001C0000BEB6014A2D5EB13FCED92E7FD2274FF5C
:1001D000FCFDFEFF22E480F8A2D574FF13FC7D80B5
:0301E000E480EFC9
:1003EB0002046BE493A3F8E493A34003F68001F2B9
:1003FB0008DFF48029E493A3F85407240CC8C33313
:10040B00C4540F4420C8834004F456800146F6DFE1
:10041B00E4800B01020408102040809004C1E47EAC
:10042B00019360BCA3FF543F30E509541FFEE493D6
:10043B00A360010ECF54C025E060A840B8E493A39D
:10044B00FAE493A3F8E493A3C8C582C8CAC583CAC8
:10045B00F0A3C8C582C8CAC583CADFE9DEE780BE80
:0104E3000018
:1001E30075F008758200EF2FFFEE33FECD33CDCCD3
:1001F30033CCC58233C5829BED9AEC99E582984056
:100203000CF582EE9BFEED9AFDEC99FC0FD5F0D632
:10021300E4CEFBE4CDFAE4CCF9A88222B800C1B95C
:100223000059BA002DEC8BF084CFCECDFCE5F0CB9A
:10023300F97818EF2FFFEE33FEED33FDEC33FCEBD3
:1002430033FB10D703994004EB99FB0FD8E5E4F98E
:10025300FA227818EF2FFFEE33FEED33FDEC33FC7B
:10026300C933C910D7059BE99A4007EC9BFCE99A6F
:10027300F90FD8E0E4C9FAE4CCFB2275F010EF2FB4
:10028300FFEE33FEED33FDCC33CCC833C810D707B4
:100293009BEC9AE899400AED9BFDEC9AFCE899F8EF
:0E02A3000FD5F0DAE4CDFBE4CCFAE4C8F92282
:0E02B100C3E49FFFE49EFEE49DFDE49CFC225E
:1002BF00EB9FF5F0EA9E42F0E99D42F0E89C45F095
:0102CF00220C
:00000001FF
