:030000000203DE1A
:0C03DE00787FE4F6D8FD7581200204252C
:1004C00004100000000002080000040A0000000000
:1004D000C100011500011400010F00010E00C182CE
:0204E000C181D8
:0F05530075150C75140CD292C293D294C29522D6
:0F05620075150C75140CC292D293C294D29522C7
:0F05710075150C75140CC292D293D294C29522B8
:0F05800075150C75140CC294D295D292C29322A9
:09059900C294C295C292C29322E1
:10050400300218E50FD395155004D2968002C29696
:0E051400E50FC394144006E4F50F22C29622B0
:10052200300118E50ED395145004D2978002C29779
:0E053200E50EC394144006E4F50E22C2972293
:100540007D0A7C3200DCFDDDF9EF1F70011E144EC8
:0205500070EE4B
:010552002286
:070003007E0A00DEFDDFF9BB
:01000A0022D3
:1002D000AF8DEFFEAD8B7C00E42DF509EC3EF5080B
:1002E000E4F58DF58BE50925E0FFE50833FEE48FA5
:1002F0000D8E0CF50BF50AAD0BAC0A1201247B7BBD
:100300007A14792E783E12001E1201628F0D8E0C27
:100310008D0B8C0AE47FC8FEFDFCAB0DAA0CA90B6B
:10032000A80AD31202BF503020030A1205997F0594
:100330007E00120540D203C2A37F327E0012054028
:10034000D2A31205627F2C7E011205401205717F37
:10035000FA7E001205408005C203120553E47F882F
:100360007E13FDFCAB0DAA0CA90BA80AC31202BF99
:100370005003300003C20022E47B0AFAF9F8AF0D03
:10038000AE0CAD0BAC0A12021FAF038F10E47B0A58
:10039000FAF9F8AF0DAE0CAD0BAC0A12021FE47BFC
:1003A0000AFAF9F812021FAF038F11E47B64FAF91D
:1003B000F8AF0DAE0CAD0BAC0A12021FE47B0AFACB
:1003C000F9F812021FAF038F12E47BE87A03F9F801
:0E03D000AF0DAE0CAD0BAC0A12021F8F132244
:03001B000205A239
:0505A200D200C2A032EE
:0A000E00D28E20A0FDC28E0202D0A7
:0A058F00D2A17F02120003C2A122D4
:03000B000204E309
:1004E300C0E0C0D0758CFC758A180509E509700257
:1004F3000508050F050E120504120522D0D0D0E021
:0105030032C5
:10046A007F057E00120540438910D2AFE4F58DF571
:10047A008BD2ABC203E4FB7F017E0012054020B29F
:10048A00F40BBB32F2C2A37F327E00120540D2A324
:10049A00D2A012058F7516037517B730A003120084
:1004AA000EE517151770021516D3E5179400E51611
:0604BA00940050E780DA17
:10001E00EC4D6011E8497017ED33EC3304600DE4DC
:10002E00FCFFFEFD22E933E8330470F80201CE1224
:10003E00019958046009E4CC248150062850090225
:10004E0001D82840030201D5C0E0EB4A7044B980C4
:10005E0006D0E0FB0201C4EF4E701CBD8008EBFF22
:10006E00EAFEE9FD80EBE98DF0A4FEE5F002010762
:10007E00E9CDF9EAFEEBFFEF89F0A4FCE5F0CE89BD
:10008E00F0A42EFFE435F0CD89F0A42DFEE435F07A
:10009E008067EF4E7005BD80D780C3EF8BF0A4ACA8
:1000AE00F0EE8BF0A42CFCE435F0F8EF8AF0A42CE3
:1000BE00E5F038FCE433CB8DF0A42CFCE5F03BF8F6
:1000CE00EE8AF0A42CFCE5F038F8E433CF89F0A4E6
:1000DE002CFCE5F038CF3400CE89F0A42FFFE5F0EC
:1000EE003EFEE433C98DF0A42EFEE5F039CD8AF044
:1000FE00A42FFFE5F03EFEE43DFD33D0E0FB5007BC
:10010E000BBB000F0201D8EC2CFCEF33FFEE33FEDD
:06011E00ED33FD0201B00B
:1001240075F020800E75F010800575F0087D007E56
:10013400007F003392D530D5031202B1EC33401066
:10014400EF33FFEE33FEED33FDEC33FCD5F0ED225F
:0E015400E5F0247EA2D513CC92E7CDCEFF229B
:10016200EDD2E7CD33EC3392D524814006E4FFFE95
:10017200FDFC22FCE4CFCECDCC24E0501174FF80F4
:10018200EDC3CC13CCCD13CDCE13CECF13CF047091
:07019200F030D5DE0202B1DE
:10019900E9D2E7C933E833F892D5EDD2E7CD33ECAC
:0701A90033FC5002B2D52225
:1001B000EC30E7100FBF000C0EBE00080DBD0004B0
:1001C0000BEB6014A2D5EB13FCED92E7FD2274FF5C
:1001D000FCFDFEFF22E480F8A2D574FF13FC7D80B5
:0301E000E480EFC9
:1003EA0002046AE493A3F8E493A34003F68001F2BB
:1003FA0008DFF48029E493A3F85407240CC8C33314
:10040A00C4540F4420C8834004F456800146F6DFE2
:10041A00E4800B01020408102040809004C0E47EAE
:10042A00019360BCA3FF543F30E509541FFEE493D7
:10043A00A360010ECF54C025E060A840B8E493A39E
:10044A00FAE493A3F8E493A3C8C582C8CAC583CAC9
:10045A00F0A3C8C582C8CAC583CADFE9DEE780BE81
:0104E2000019
:1001E30075F008758200EF2FFFEE33FECD33CDCCD3
:1001F30033CCC58233C5829BED9AEC99E582984056
:100203000CF582EE9BFEED9AFDEC99FC0FD5F0D632
:10021300E4CEFBE4CDFAE4CCF9A88222B800C1B95C
:100223000059BA002DEC8BF084CFCECDFCE5F0CB9A
:10023300F97818EF2FFFEE33FEED33FDEC33FCEBD3
:1002430033FB10D703994004EB99FB0FD8E5E4F98E
:10025300FA227818EF2FFFEE33FEED33FDEC33FC7B
:10026300C933C910D7059BE99A4007EC9BFCE99A6F
:10027300F90FD8E0E4C9FAE4CCFB2275F010EF2FB4
:10028300FFEE33FEED33FDCC33CCC833C810D707B4
:100293009BEC9AE899400AED9BFDEC9AFCE899F8EF
:0E02A3000FD5F0DAE4CDFBE4CCFAE4C8F92282
:0E02B100C3E49FFFE49EFEE49DFDE49CFC225E
:1002BF00EB9FF5F0EA9E42F0E99D42F0E89C45F095
:0102CF00220C
:00000001FF
