:0300000002000EED
:0C000E00787FE4F6D8FD75810D020055E6
:050003003BC7F19D0365
:1001D600010B00010A00010D00010C0002080000DD
:040162007FE87E03B1
:10016600E4FDFCC3ED9FEC9E500DE4FB0BBB6EFC67
:070176000DBD00010C80EC3F
:01017D00225F
:10017E00900003E493F580750B0C750B0CD292C2B4
:06018E0093D294C29522F9
:10019400900004E493F580750B0C750B0CC292D29D
:0601A40093C294D29522E3
:1001AA00900005E493F580750B0C750A0CC292D287
:0601BA0093D294C29522CD
:1001C000900006E493F580750A0C750B0CC294D26E
:0601D00095D292C29322B9
:1001E700900007E493F580C294C295C292C293220D
:1000FF0020921B209318E50BD3950D5004D29680B8
:10010F0002C296E50BC394144006E4F50B22C29687
:01011F0022BD
:1001200020941B209518E50AD3950C5004D2978093
:1001300002C297E50AC394144006E4F50A22C29766
:01014000229C
:03000B00020141AE
:10014100C0E0C0D0758CFC758A180509E5097002FC
:100151000508050B050A1200FF120120D0D0D0E0DE
:01016100326B
:10009A00E4F590E4FA7F647E0012016620B2F40A65
:1000AA00BA32F2C2A3120162D2A3758901758CFC1D
:1000BA00758A18D28CD2A9D2AF30B50830B40512DD
:1000CA00017E80F530B50820B4051201C0800920F0
:1000DA00B50B30B4081201AA12016280DC20B5D92E
:1000EA0020B4D61201941201621201C07FD07E0799
:0500FA0012016680C444
:10001A0002009AE493A3F8E493A34003F68001F262
:10002A0008DFF48029E493A3F85407240CC8C333E7
:10003A00C4540F4420C8834004F456800146F6DFB6
:10004A00E4800B01020408102040809001D6E47E6F
:10005A00019360BCA3FF543F30E509541FFEE493AB
:10006A00A360010ECF54C025E060A840B8E493A372
:10007A00FAE493A3F8E493A3C8C582C8CAC583CA9D
:10008A00F0A3C8C582C8CAC583CADFE9DEE780BE55
:0101E6000018
:00000001FF
